:100000000C9463000C94840A0C94B10A0C948B0039
:100010000C948B000C948B000C948B000C948B0034
:100020000C948B000C948B000C948B000C948B0024
:100030000C948B000C948B000C948B000C948B0014
:100040000C9448010C948B000C9419030C946703D6
:100050000C948B000C948B000C948B000C948B00F4
:100060000C948B000C948B000000000024002700EF
:100070002A0000000000250028002B0000000000DE
:1000800023002600290004040404040404040202DA
:100090000202020203030303030301020408102007
:1000A0004080010204081020010204081020000012
:1000B0000007000201000003040600000000000029
:1000C00000009000D30411241FBECFEFD8E0DEBFA4
:1000D000CDBF11E0A0E0B1E0EAEBF6E102C005908F
:1000E0000D92A636B107D9F712E0A6E6B1E001C03D
:1000F0001D92AD36B107E1F710E0C6ECD0E004C0C8
:100100002297FE010E94570BC23CD107C9F70E94FB
:1001100076060C948D000C940000F8940C945B0B04
:1001200084E691E090936701809366018AE0809372
:10013000680182E08093690181E080935E02109201
:100140006B018FE180936C0110926D0108950F9304
:100150001F93DF93CF930F92CDB7DEB786E691E082
:100160000E94E3078823D9F180915F02823039F041
:100170008FEF91E060E071E00E9473061FC0009174
:100180002102109122028FEF91E067E371E00E945B
:100190007306609160028FEF91E04AE050E00E94A8
:1001A00002068FEF91E06EE371E00E9473068FEF1D
:1001B00091E0B8014AE050E00E9454068091630249
:1001C000882369F086E691E06BE471E040E00E94EC
:1001D0002D096AE070E080E090E00E949E010E949C
:1001E000900124E630E040E050E00E94330B40E014
:1001F00050E080914C0190914D01A0914E01B09141
:100200004F01281739074A075B07A1F020934C01DB
:1002100030934D0140934E0150934F0181E089830B
:1002200086E691E063E6AE014F5F5F4F21E000E0BC
:100230000E9451090F90CF91DF911F910F91089566
:100240000F931F938FEF91E040E052EC61E070E07C
:100250000E94A2036AE070E080E090E00E949E01AC
:1002600006E611E0C8016BE541E020E10E947D094E
:10027000C80161E00E94F306C80160E070E00E94DE
:10028000F807C80160E00E9491061F910F91089540
:100290001F920F920FB60F9211242F933F938F93BB
:1002A0009F93AF93BF938091720190917301A0913E
:1002B0007401B0917501309176010196A11DB11DB7
:1002C000232F2D5F2D3720F02D570196A11DB11D35
:1002D000209376018093720190937301A09374012F
:1002E000B093750180916E0190916F01A0917001A2
:1002F000B09171010196A11DB11D80936E01909383
:100300006F01A0937001B0937101BF91AF919F9164
:100310008F913F912F910F900FBE0F901F901895C6
:100320008FB7F8942091720130917301409174015C
:10033000509175018FBFB901CA0108959B01AC01AD
:100340007FB7F89480916E0190916F01A091700138
:10035000B091710166B5A89B05C06F3F19F0019679
:10036000A11DB11D7FBFBA2FA92F982F8827860FF7
:10037000911DA11DB11D62E0880F991FAA1FBB1F0F
:100380006A95D1F7BC012DC0FFB7F89480916E013A
:1003900090916F01A0917001B0917101E6B5A89B99
:1003A00005C0EF3F19F00196A11DB11DFFBFBA2F87
:1003B000A92F982F88278E0F911DA11DB11DE2E056
:1003C000880F991FAA1FBB1FEA95D1F7861B970BB1
:1003D000885E9340C8F22150304040405040685100
:1003E0007C4F211531054105510571F6089578942A
:1003F00084B5826084BD84B5816084BD85B582602A
:1004000085BD85B5816085BDEEE6F0E080818160C7
:100410008083E1E8F0E010828081826080838081C7
:1004200081608083E0E8F0E0808181608083E1EB9F
:10043000F0E0808184608083E0EBF0E08081816087
:100440008083EAE7F0E0808184608083808182603D
:100450008083808181608083808180688083109226
:10046000C1000895CF93DF93482F50E0CA0186560C
:100470009F4FFC0134914A575F4FFA0184918823C2
:1004800069F190E0880F991FFC01E859FF4FA59191
:10049000B491FC01EE58FF4FC591D491662351F4FD
:1004A0002FB7F8948C91932F909589238C93888102
:1004B00089230BC0623061F42FB7F8948C91932F8D
:1004C000909589238C938881832B88832FBF06C0C6
:1004D0009FB7F8948C91832B8C939FBFDF91CF9122
:1004E0000895482F50E0CA0182559F4FFC01249186
:1004F000CA0186569F4FFC0194914A575F4FFA01FB
:100500003491332309F440C0222351F1233071F098
:10051000243028F42130A1F0223011F514C0263007
:10052000B1F02730C1F02430D9F404C080918000AC
:100530008F7703C0809180008F7D8093800010C0F2
:1005400084B58F7702C084B58F7D84BD09C080914A
:10055000B0008F7703C08091B0008F7D8093B00092
:10056000E32FF0E0EE0FFF1FEE58FF4FA591B4917F
:100570002FB7F894662321F48C919095892302C0BB
:100580008C91892B8C932FBF0895682F70E0CB013D
:1005900082559F4FFC012491CB0186569F4FFC0151
:1005A00044916A577F4FFB019491992319F420E0FD
:1005B00030E03CC0222351F1233071F0243028F484
:1005C0002130A1F0223011F514C02630B1F02730CF
:1005D000C1F02430D9F404C0809180008F7703C02B
:1005E000809180008F7D8093800010C084B58F77CC
:1005F00002C084B58F7D84BD09C08091B0008F7723
:1006000003C08091B0008F7D8093B000892F90E06F
:10061000880F991F84589F4FFC01A591B4918C912C
:1006200020E030E0842311F021E030E0C90108959A
:1006300008951F920F920FB60F9211242F933F939C
:100640004F938F939F93EF93FF938091C00082FD10
:100650001DC04091C6002091B7013091B8012F5FB5
:100660003F4F2F7330708091B9019091BA012817D4
:10067000390771F0E091B701F091B801E958FE4FE8
:1006800040833093B8012093B70102C08091C60027
:10069000FF91EF919F918F914F913F912F910F90EB
:1006A0000FBE0F901F901895E0910B02F0910C0275
:1006B000E05CFF4F8191919120813181821B930BEE
:1006C0008F739070892B11F00E94180308951F9268
:1006D0000F920FB60F9211242F933F938F939F93F6
:1006E000EF93FF932091FB013091FC018091FD017C
:1006F0009091FE012817390731F48091C1008F7D58
:100700008093C10014C0E091FD01F091FE01E55419
:10071000FE4F20818091FD019091FE0101968F7323
:1007200090709093FE018093FD012093C600FF918D
:10073000EF919F918F913F912F910F900FBE0F904E
:100740001F901895AF92BF92DF92EF92FF920F9396
:100750001F93CF93DF93EC017A018B01DD244030AE
:1007600081EE580780E0680780E0780711F0DD240B
:10077000D39491E0A92EB12CEC89FD89DD2069F09C
:10078000C50108A002C0880F991F0A94E2F7808370
:1007900060E079E08DE390E005C0108260E874E8E5
:1007A0008EE190E0A80197010E94330B2150304068
:1007B00040405040569547953795279580E1203029
:1007C000380720F0DD2011F0DD24D6CFE889F98943
:1007D0003083EA89FB89208319A2EE89FF89408151
:1007E00021E030E0C9010C8C02C0880F991F0A94E7
:1007F000E2F7482B4083EE89FF894081C9010D8CC7
:1008000002C0880F991F0A94E2F7482B4083EE89B3
:10081000FF894081C9010E8C02C0880F991F0A947C
:10082000E2F7482B4083EE89FF8980810F8C02C05C
:10083000220F331F0A94E2F7209528232083DF91AB
:10084000CF911F910F91FF90EF90DF90BF90AF90ED
:100850000895DC011C96ED91FC911D97E05CFF4F23
:100860002191319180819181281B390B2F73307038
:10087000C9010895DC011C96ED91FC911D97E05C87
:10088000FF4F20813181E054F040DF01AE5BBF4F6C
:100890008D919C9111972817390719F42FEF3FEF8D
:1008A00007C08D919C91E80FF91F8081282F30E0BF
:1008B000C9010895DC011C96ED91FC911D97E05C47
:1008C000FF4F20813181E054F040DF01AE5BBF4F2C
:1008D0008D919C9111972817390719F42FEF3FEF4D
:1008E00010C08D919C911197E80FF91F20818D9177
:1008F0009C91119701968F73907011969C938E9393
:1009000030E0C9010895DC0191968C91919788237C
:1009100039F05496ED91FC915597808186FFF9CF7F
:1009200091961C920895CF93DF93EC01EE85FF859D
:10093000E05CFF4F20813181E054F0402F5F3F4F5A
:100940002F733070DF01AE5BBF4F8D919C9111977B
:1009500028173907D1F3E05CFF4F80819181E05483
:10096000F040E80FF91F6083EE85FF85E05CFF4FE4
:1009700031832083EE89FF89208181E090E00F8C14
:1009800002C0880F991F0A94E2F7282B208381E088
:1009900089A3EC89FD8980818064808381E090E077
:1009A000DF91CF910895109202021092010288EE19
:1009B00093E0A0E0B0E08093030290930402A09340
:1009C0000502B093060284E591E0909300028093C3
:1009D000FF0187E791E090930C0280930B028BEB71
:1009E00091E090930E0280930D0285EC90E090933D
:1009F000100280930F0284EC90E090931202809397
:100A0000110280EC90E0909314028093130281EC29
:100A100090E0909316028093150282EC90E0909300
:100A200018028093170286EC90E090931A0280934C
:100A3000190284E080931B0283E080931C0287E00C
:100A400080931D0285E080931E0281E080931F0247
:100A50000895CF92DF92EF92FF920F931F93CF935F
:100A6000DF937C016B018A01C0E0D0E00FC0D601AA
:100A70006D916D01D701ED91FC910190F081E02D18
:100A8000C7010995C80FD91F015010400115110564
:100A900071F7CE01DF91CF911F910F91FF90EF90F1
:100AA000DF90CF900895EF92FF920F931F938C01E8
:100AB000DC01ED91FC910190F081E02D6DE0099554
:100AC0007C01D801ED91FC910190F081E02DC801ED
:100AD0006AE009959C012E0D3F1DC9011F910F91E0
:100AE000FF90EF900895CF93DF93EC0161157105AE
:100AF00019F420E030E00FC0DB010D900020E9F791
:100B00001197A61BB70BE881F9810280F381E02DD4
:100B1000AD0109959C01C901DF91CF9108954F92D4
:100B20005F927F928F929F92AF92BF92CF92DF920D
:100B3000EF92FF920F931F93DF93CF93CDB7DEB762
:100B4000A1970FB6F894DEBF0FBECDBF2C01742E57
:100B5000CB01223008F42AE019A231E2C32ED12CB5
:100B6000CC0EDD1E822E9924AA24BB24672D752F5E
:100B7000A50194010E94330B79018A01C801B701D4
:100B8000A50194010E94140B472D461B0894C1082F
:100B9000D1084A3014F4405D01C0495CF60140833D
:100BA000E114F1040105110521F07E2C5F2DC8012F
:100BB000DDCFC201B6010E947305A1960FB6F8946D
:100BC000DEBF0FBECDBFCF91DF911F910F91FF9080
:100BD000EF90DF90CF90BF90AF909F908F907F90DD
:100BE0005F904F900895DC012115310541F4ED919E
:100BF000FC910190F081E02D642F099508950E94E9
:100C00008F050895EF92FF920F931F939A01E62E9E
:100C1000FF2400E010E0B801A7010E94F3051F9136
:100C20000F91FF90EF900895CF92DF92EF92FF9295
:100C30000F931F93CF93DF93EC016A017B01211582
:100C4000310541F4E881F9810190F081E02D642FB4
:100C500009951FC02A303105D1F477FF17C0E8810C
:100C6000F9810190F081E02D6DE209958C01442716
:100C70005527BA014C195D096E097F09CE012AE09A
:100C80000E948F059801280F391F04C02AE00E9496
:100C90008F059C01C901DF91CF911F910F91FF90AA
:100CA000EF90DF90CF900895CF92DF92EF92FF9276
:100CB0000F931F936C017B019A010027F7FC0095AD
:100CC000102FB801A7010E9414068C01C6010E94D2
:100CD0005305080F191FC8011F910F91FF90EF9046
:100CE000DF90CF9008950E9473050895CF93DF930E
:100CF0000E94F7010E942001C4E5D3E00E94A700F2
:100D00002097E1F30E945403F9CFE0916702F0913C
:100D10006802A081B1812D913C91CF01F901099523
:100D20000895FC0165830895FC01828161E00E94C1
:100D3000710278940895FC01F894828160E00E9429
:100D4000710208950F931F93CF93DF93EC01162F39
:100D5000042F0E949B0610681EBD0DB407FEFDCF38
:100D60008EB50EBD0DB407FEFDCF8EB5CE010E942F
:100D70009406DF91CF911F910F9108951F93CF9308
:100D8000DF93EC01162F662311F445E501C04DE514
:100D9000CE016AE50E94A206112311F440E701C0CA
:100DA0004CE7CE016CE50E94A206DF91CF911F9126
:100DB00008951F93CF93DF93EC01162F0E949B069B
:100DC0001F771EBD0DB407FEFDCF8EB51EBC0DB442
:100DD00007FEFDCF1EB5CE010E949406812FDF9144
:100DE000CF911F910895CF93DF93EC016F8366231A
:100DF00011F44AE101C04FE0CE0163E10E94A20676
:100E00008F81882341F0CE0161E10E94D906482FED
:100E10004F71406602C04E814068CE0161E10E9480
:100E2000A206DF91CF910895CF93DF93EC01662363
:100E300051F063E241E00E94A206CE0163E20E940B
:100E4000D90681FFFACFCE0164E20E94D906282F8D
:100E500030E0309521953F4F35952795C901DF91B9
:100E6000CF9108951F93CF93DF93EC01162F8091BC
:100E70005E02681709F459C0623089F1633030F4BA
:100E80006623E9F1613009F050C031C06330A1F050
:100E9000643009F04AC0CE0161E00E94D906482FB3
:100EA000437E4C60CE0161E00E94A2068F818823C0
:100EB00081F1CE0161E010C0CE0161E00E94D9064F
:100EC000482F437E4061CE0161E00E94A2068F81DF
:100ED0008823F9F0CE0160E00E94BE061AC0CE0160
:100EE00061E00E94D906482F437E48600EC0CE01C3
:100EF00061E00E94D906482F437E446006C0CE01BF
:100F000061E00E94D906482F437ECE0161E00E9435
:100F1000A20680915E02882331F4CE0167E20E942E
:100F2000D9068823B4F710935E02DF91CF911F9109
:100F30000895CF93DF93EC0180915E02833089F4B2
:100F400080916202882369F4CE0160E00E94140758
:100F5000865A9F4F34F4CE0161E00E94320781E04F
:100F600001C080E0DF91CF910895CF93DF93EC0132
:100F700010925F021092600210926102109262025F
:100F8000109263021092640210926602109265023F
:100F900068E20E94D90682FF0AC0CE016DE30E947A
:100FA000D906482F4460CE016DE30E94A206CE010F
:100FB00065E240E40E94A206CE0163E00E9432078F
:100FC000DF91CF9108959C01F89480915E02833067
:100FD00051F480916202882331F0C90161E00E94DE
:100FE000320781E00895C9010E94B50780E00895A5
:100FF0000F931F93CF93DF93EC018B0161E00E946D
:10100000320701151105E1F0CE010E949B068EEB1F
:101010008EBD0DB407FEFDCF8EB520E030E0F801A7
:10102000E20FF31F80818EBD0DB407FEFDCF8EB59C
:101030002F5F3F4F2031310591F7CE010E9494067A
:10104000CE016DE30E94D906482F4E7F80E0012B30
:1010500009F081E0482BCE016DE30E94A206DF91EA
:10106000CF911F910F910895CF93DF93EC01809161
:101070005E02833009F067C0CE0168E20E94D906A3
:1010800082FF61C0CE0161E00E943207CE010E9462
:101090009B061EBC0DB407FEFDCF8EB51EBC0DB465
:1010A00007FEFDCF8EB58093620280916202833489
:1010B00010F082E402C080916202809362021EBC42
:1010C0000DB407FEFDCF8EB5809361028D8188231C
:1010D00009F042C0909161028C819817E9F18091EA
:1010E00061028823C9F110926202CE010E94940627
:1010F0003AC00DB407FEFDCF8EB5809360021EBCD2
:101100000DB407FEFDCF8EB5982F907890936402B2
:1011100080748093630290E00BC01EBC0DB407FE88
:10112000FDCF8EB5E92FF0E0EF5DFD4F80839F5F2F
:1011300080915F02981788F3CE010E949406CE0139
:1011400063E00E943207CE0160E00E941407909392
:1011500066028093650207C080916202835080938B
:101160005F021EBCC6CFDF91CF910895CF92DF9270
:10117000EF92FF920F931F93CF93DF93EC01F62E24
:10118000D42EC52E122F61E00E943207CE0167E2F5
:101190000E94D90687FFFACFCE0165E240E00E94A7
:1011A000A2061E3308F01DE3CE010E949B0680E8D4
:1011B0008EBD0DB407FEFDCF8EB51D5F1EBD135055
:1011C0000DB407FEFDCF8EB5FEBC0DB407FEFDCFFE
:1011D0008EB58C818EBD0DB407FEFDCF8EB5EE2091
:1011E00031F080E88EBD0DB407FEFDCF07C00023AF
:1011F00061F080E48EBD0DB407FEFDCF8EB58D2D60
:101200009C2D9C01F90190E00DC01EBC0DB407FEA1
:10121000FDCFF4CF80818EBD0DB407FEFDCF8EB51E
:101220009F5F31969117B0F3CE010E949406CE01D4
:1012300064E00E9432078B810E94C502892BD9F39A
:10124000CE0161E00E943207DF91CF911F910F9193
:10125000FF90EF90DF90CF900895EF92FF920F9361
:101260001F93CF93DF93EC018B01F42EE09060028B
:1012700003C0CE010E94E307CE010E949907882394
:10128000C1F3CE016E2DA8012F2D00E0EE24E394D2
:101290000E94B608DF91CF911F910F91FF90EF90C0
:1012A0000895DF92EF92FF920F931F93CF93DF93F6
:1012B000EC01162F7A01D22E6DE30E94D906482F39
:1012C0004460CE016DE30E94A20603C0CE010E94DD
:1012D000E307CE010E9499078823C1F3CE01612F55
:1012E000A7012D2DEE240E94B608DF91CF911F910A
:1012F0000F91FF90EF90DF900895CF92DF92EF92E1
:10130000FF920F931F93DF93CF93CDB7DEB7AA97CA
:101310000FB6F894DEBF0FBECDBF7C01042F522F55
:101320006F3119F430EC4EE40EC06B3211F44CE620
:10133000C6C0663509F0BFC049ED04C0663511F07E
:1013400030EC01C030E0FE0131968AE2DF011D92EF
:101350008A95E9F781E0898394E09A8382E08B8320
:1013600023E02D838E839F8390E4988785E089878F
:101370002A8786E08B8783E38C8787E08D8788E0E8
:101380008F8789E0898B89E18B8B22E42C8B85E226
:101390008D8B9E8B89E28F8B8CED888F8EE2898F6F
:1013A00088E88A8F8FE28B8F8DE28C8F90E39D8F00
:1013B00087E38F8F80E988A388E389A32AA38CE33E
:1013C0008BA38FE88CA38DE38DA382E18EA38FE6A0
:1013D0008FA398A78FEF89A74E87388B5E8FF70171
:1013E000828161E00E94320280E00E94E70A81E08F
:1013F0000E94DE0A84E00E94EC0A0E94FD0AC701F6
:101400006FE24AEA0E94A206C7016FE20E94D90673
:101410008A3AA9F7C7016FE245E50E94A206C70113
:101420006FE20E94D9068535A9F710E06E01089495
:10143000C11CD11C05C0C70141810E94A2061F5FCB
:10144000E12FF0E0EE0FFF1FEC0DFD1D60816F3FFF
:1014500091F7C70160E070E00E94F807C701D7016B
:1014600017966C910E94F306C70161E00E94320753
:10147000C70167E20E94D90687FFFACF80E065E8DE
:1014800076E043E050E00E94610AF0926802E09248
:101490006702F701048381E0AA960FB6F894DEBFD5
:1014A0000FBECDBFCF91DF911F910F91FF90EF90B5
:1014B000DF90CF90089544EE6B3209F03FCF30E4D7
:1014C00042CF823000F5E82FF0E0EE0FFF1FE75922
:1014D000FD4F71836083882319F08130A1F408C027
:1014E000809169008C7F842B80936900E89A08952D
:1014F00080916900440F551F440F551F837F842B33
:1015000080936900E99A08951F920F920FB60F9287
:1015100011242F933F934F935F936F937F938F93F8
:101520009F93AF93BF93EF93FF9380916902909144
:101530006A02892B29F0E0916902F0916A0209950B
:10154000FF91EF91BF91AF919F918F917F916F919B
:101550005F914F913F912F910F900FBE0F901F9071
:1015600018951F920F920FB60F9211242F933F934D
:101570004F935F936F937F938F939F93AF93BF939B
:10158000EF93FF9380916B0290916C02892B29F06D
:10159000E0916B02F0916C020995FF91EF91BF9180
:1015A000AF919F918F917F916F915F914F913F91FB
:1015B0002F910F900FBE0F901F901895882319F44C
:1015C0008CB5806202C08CB58F7D8CBD08959CB5B2
:1015D000937F982B9CBD08952CB5382F33702C7FAA
:1015E000322B3CBD2DB590E09595879595958795C7
:1015F00081702E7F822B8DBD08958AE061E00E946C
:1016000071028AE061E00E9432028CB580618CBD7B
:101610008CB580648CBD8DE061E00E9432028BE06D
:1016200061E00E9432020895629FD001739FF00131
:10163000829FE00DF11D649FE00DF11D929FF00D62
:10164000839FF00D749FF00D659FF00D9927729F99
:10165000B00DE11DF91F639FB00DE11DF91FBD0124
:10166000CF0111240895A1E21A2EAA1BBB1BFD0174
:101670000DC0AA1FBB1FEE1FFF1FA217B307E40771
:10168000F50720F0A21BB30BE40BF50B661F771FC9
:10169000881F991F1A9469F76095709580959095A9
:1016A0009B01AC01BD01CF010895EE0FFF1F059016
:0A16B000F491E02D0994F894FFCFA7
:1016BA00496E76616C6964207061796C6F6164202F
:1016CA0072656365697665642C206E6F74206D613E
:1016DA00746368696E67205061796C6F6164207306
:1016EA00747275637421004E6F6465205B005D201F
:1016FA00537472656E6774683A200000FFFFFFFF3B
:10170A00000000009304290529045A043A048304BA
:06171A000000000034088D
:00000001FF
